:1003CF0057643A3030202048303020204C303020D5
:1003DF00200053643A3030252048303025204C30EF
:0403EF003025200095
:10045000011001011523010E0A011450010D0A05B6
:060460000800000000008E
:10041400E4FDFCC3ED9FEC9E5015E4FBFA0BBB001E
:0F042400010AEB64784A70F50DBD00010C80E40D
:0104330022A6
:10043400C2918F807F197E00120445D2927F647E20
:0104440000B7
:0B044500EF1FAC0670011E4C70F62289
:05047A0012047F7F0F5A
:08047F00C290120434C2922263
:08048700D290120434C292224B
:10046700EDBF01042480800224C0FF12047FAF0384
:03047700020487F5
:05036000FB7A007F01A3
:10036500EDBF01042480800224C0FF12047F7C00BD
:100375007D0AAF03AE021202197C007D0A12021932
:10038500ED2430FF120487AE02AF037C007D0A1214
:090395000219ED2430FF02048777
:1003F300EDBF01042480800224C0FF12047F120297
:1004030000FF600C120487740129F9E43AFA80EEC4
:0104130022C6
:10018B007F3812047F7F0C12047F7F0612047F7B63
:10019B00FF7A0379CFE4FD7F011203F37A0379E150
:1001AB007F021203F37BDF7D057F011204677D0A5B
:1001BB007F011204677D0F7F01120467E50A7D033F
:1001CB00120360E508FB7D037F02120365E515FB57
:1001DB007D087F01120365E514FB7D087F02120386
:1001EB0065E50EFB7D0D7F01120365E50DFB7D0DB6
:0501FB007F0202036514
:10039E00E4F51130A00630A10320A2247F017E00D7
:1003AE0012041420A00375110120A103751102205F
:1003BE00A203751103C2957F327E00120414D295EA
:0103CE00220C
:10000300E511B4010F050FE50FD394044006E4F5A1
:100013000F12018BE50F64017030E511B4020C057A
:1000230015E515D394634003751563E511B4030E09
:100033001515E515D3950E5005E50E04F515E515D3
:100043007D081203607F8812047AE50F640270351D
:10005300E511B4020E050EE50EC395154005E51531
:1000630014F50EE511B4030C150EE50ED3940150EF
:1000730003750E01E50EFB7A007D0D7F011203650A
:100083007F8D12047AE50F64037035E511B4020C19
:100093000514E514D394634003751463E511B403A5
:1000A3000E1514E514D3950D5005E50D04F514E56F
:1000B30014FB7A007D087F021203657FC812047A5D
:1000C300E50F64047035E511B4020E050DE50DC3AB
:1000D30095144005E51414F50DE511B4030C150D45
:1000E300E50DD394015003750D01E50DFB7A007DF9
:0C00F3000D7F021203657FCD12047A22FB
:10026E00C2A77F127E00120414D2A77F0412044587
:10027E0020A73C30A7FD20A7FDE4FDE4F516740889
:10028E002DF8C000E625E0D000F630A7FD7F037EF6
:10029E000012044530A70B74082DF8E64401F62031
:1002AE00A7FD0516E516C3940840D30DBD05CCD2A7
:0102BE00A798
:0102BF00221C
:10031200E50AC395154004C2B48002D2B4E50AD3FB
:10032200950E5004C2B58002D2B5E508C3951440BB
:1003320004C2938002D293E508D3950D5004C2946F
:100342008002D29430B40930B50630930320940869
:0E035200E510B40108B29522D2957510012273
:1002C00012018B0513E51370020512C3942CE5127D
:1002D00094014021E4F512F51312026EE508FB7A51
:1002E000007D037F02120365E50AFB7D037F011297
:1002F000036512031212039E120003E50F700AE554
:1003000011B40305E4F510D2957F017E00120414A8
:0203100080B1BA
:030000000200FFFC
:0C00FF00787FE4F6D8FD758116020146FA
:10020000BB010689828A83E0225002E722BBFE02FC
:09021000E32289828A83E493222F
:10021900BC000BBE0029EF8DF084FFADF022E4CCC9
:10022900F875F008EF2FFFEE33FEEC33FCEE9DEC92
:10023900984005FCEE9DFE0FD5F0E9E4CEFD22EDD8
:10024900F8F5F0EE8420D21CFEADF075F008EF2F22
:10025900FFED33FD4007985006D5F0F222C398FD13
:050269000FD5F0EA22B0
:10010B000202C0E493A3F8E493A34003F68001F248
:10011B0008DFF48029E493A3F85407240CC8C333F5
:10012B00C4540F4420C8834004F456800146F6DFC4
:10013B00E4800B0102040810204080900450E47E00
:10014B00019360BCA3FF543F30E509541FFEE493B9
:10015B00A360010ECF54C025E060A840B8E493A380
:10016B00FAE493A3F8E493A3C8C582C8CAC583CAAB
:10017B00F0A3C8C582C8CAC583CADFE9DEE780BE63
:010466000095
:00000001FF
